:020000040000FA
:1000000078210020C50100006D0900006F09000083
:1000100000000000000000000000000000000000E0
:10002000000000000000000000000000C9090000FE
:100030000000000000000000830100002F0A000003
:1000400077090000790900007B0900007D090000A4
:100050007F09000081090000830900008509000074
:1000600087090000890900008B0900008D09000044
:100070008F09000091090000930900009509000014
:1000800097090000990900009B0900009D090000E4
:100090009F090000A1090000D7010000A30900008A
:1000A000A5090000A709000000F002F800F03EF8E2
:1000B0000CA030C8083824182D18A246671EAB467D
:1000C00054465D46AC4201D100F030F87E460F3E0A
:1000D0000FCCB6460126334200D0FB1AA246AB46EF
:1000E00033431847F01F000010200000103A02D3DD
:1000F00078C878C1FAD8520701D330C830C101D5C9
:1001000004680C60704700000023002400250026CE
:10011000103A01D378C1FBD8520700D330C100D5C3
:100120000B6070471FB51FBD10B510BD01F0B8FEC4
:100130001146FFF7F7FF00F082FB01F0D0FE03B499
:10014000FFF7F2FF03BC01F0D7FE0000084B19686F
:100150000868203080F30988022080F31488BFF3F8
:100160006F8F3FBCAE4608BC04BC62B618470000A7
:1001700014000020EFF3108072B6704780F31088EF
:100180007047EFF309800E4B1A6820381060F0C0FA
:1001900044464D4656465F46F0C008B572B600F07C
:1001A000FAFD62B60CBC116808681030F0C8A046B1
:1001B000A946B246BB4680F309882038F0C81847E4
:1001C000140000200748804707480047FEE7FEE785
:1001D000FEE7FEE7FEE7FEE704480549054A064B51
:1001E0007047000091070000A9000000781100206E
:1001F00078210020781900207819002070B510248B
:10020000002505604560BE494161416285624163E8
:1002100021214906884202D1BA4BBB4A0CE0432156
:100220000906884204D1B74BB74A4033403203E055
:10023000B44BB54A803380320020602681005E5086
:100240005550401CA042F9D370BDF0B521220023C7
:1002500010275206904201D1AA4A08E04322120612
:10026000904202D1A74A403201E0A64A80320126DC
:1002700034460D689C402540A54241D10D79012DA1
:100280000BD044614C79A4070BD59C001559AD08DF
:10029000AD0015511559022609E005692543056190
:1002A000F0E79C001559AD08AD00155115593543BF
:1002B00015514C79640704D59C0015590426354323
:1002C00003E09C0015590426B54315514C79A4064A
:1002D00004D59C0015592026354303E09C00155990
:1002E0002026B54315514C79640604D59C00155958
:1002F0004026354303E09C0015594026B54315516F
:100300005B1CBB42B3D3F0BD7D490160002101718C
:100310006221417170470246126800200A4200D0F3
:1003200001207047006880B2704702465268002082
:100330000A4200D001207047406880B270470A0628
:10034000920D012312189B02D21811600A0A920022
:1003500010185A0080180160704710B50B069B0DED
:100360000124CA431B18A4021B191A60090A890038
:10037000081861004018026010BD10B50B069B0DF7
:1003800001241B18A4021B191A60090A8900081805
:1003900061004018026010BD41607047836A0B43E2
:1003A0008362012A03D0426A0A4342627047026AAA
:1003B0000A4302627047524A8262012901D04262B6
:1003C000704702627047012A03D0426B0A434263BE
:1003D0007047026B0A4302637047494A012901D002
:1003E0004263704702637047454981637047024624
:1003F000926B00200A4200D001207047F0B5012620
:10040000414F002334469C400C420ED0002810D0AF
:10041000012811D03C4C9D0080342C192568AD0872
:10042000AD0025602568154325605B1C102BE9DBBA
:10043000F0BD9C00E419F1E79C00E419256CAD08BF
:10044000AD002564256C15432564EEE77CB50446B4
:100450001E460D466846FFF757FF68460095027135
:1004600069462046FFF7F1FE21204006844201D173
:10047000002006E043200006844201D1012000E074
:10048000022032462946FFF7B9FF7CBD7CB5044601
:1004900016460D466846FFF737FF0020694600956F
:1004A00008712046FFF7D1FE206A28432062A06A27
:1004B0002843A062324629462046FFF784FF2120C8
:1004C0004006124E844206D1002001222946FFF741
:1004D00095FF802012E043200006844207D10120CE
:1004E00002462946FFF78AFFFF20013006E002207E
:1004F00001222946FFF782FF0120400230607CBDC7
:10050000FFFF0000003000410020004100E100E05A
:10051000E12149020160602181800021C180032224
:10052000018112024281818170477047F8B504460B
:10053000006B0D464008400020637F4802210161A6
:1005400040690126314681407C4801F0E5F8009081
:100550002868000101F07EFC0746009801F07AFC53
:10056000394601F083FB074601F030FC009001F0B2
:1005700071FC394601F01AFD062101F06FFC01F013
:100580004BFB00226E4B01F0F3FA01F021FB0099C6
:100590006162A062E06AEE218843A988EA8811437B
:1005A0002A890243E06A11430843E062206B6549EF
:1005B000AA890840698911430143206B08432063DD
:1005C000206B304320630020F8BD01607047006855
:1005D00080B27047C16A01221143C162704702466E
:1005E000526800200A4200D00120704741607047E5
:1005F0000246926900200A4200D001207047002A7A
:1006000003D0826B0A4382637047426C0A434264A0
:1006100070470246126C00200A4200D00120704749
:10062000426C0A4342647047704710B5044646481E
:10063000016B02290AD0006B032809D000F0A5F84D
:10064000214601F069F84149086110BD3B48F7E7D0
:100650003F48F5E710B5FFF7E8FF3C4988680322FB
:100660008008800010438860002010BD37494A6828
:10067000D207FCD1086070473448006880B27047E8
:10068000324A0146526800200A4200D001207047D9
:100690002E4A0029916801D0014300E08143916016
:1006A00070472A4A0029916801D0014300E0814344
:1006B00091607047254A0146D26800200A4200D066
:1006C000012070472149CA680243CA60704701602F
:1006D00082691207FCD40846704730B50B460546C0
:1006E0001C78002C03D021462846FFF7F0FF5B1C46
:1006F000002CF5D130BD8169C906FCD40068C0B2B8
:10070000704700B50346FFF7B1FF184600BD10B5AE
:1007100003461C78002C02D02046FFF7A7FF5B1C85
:10072000002CF6D110BD00B5084841688907FCD5FA
:10073000FFF7A2FFC0B200BD4011004100127A00D5
:100740000000E03FFE3CFFFF001000410060004061
:10075000001BB70010B520480121016242699207D1
:10076000D20F91404269D207D20F9140CAB241697B
:1007700040698904890E51438002184A800E504313
:1007800000F0CAFF1649486010BD15480068704760
:1007900010B51448816B144A1161C16B0E48416059
:1007A000124941610121016242699207D20F9140D1
:1007B0004269D207D20F9140CAB2416940698904A7
:1007C000890E51438002054A800E504300F0A4FF79
:1007D00003490860486010BD00100041001BB700CD
:1007E0000000002080FD030000120041000208000C
:1007F0001124A40601212046FFF797FD002805D00B
:1008000001212046FFF7A9FD32A004E00121204686
:10081000FFF795FD33A000F0B3FE642000F08BFAE3
:10082000E8E734A000F0ACFEC82000F084FAF8E756
:1008300036A000F0A5FE962000F07DFAF8E77CB522
:10084000FFF7A6FFE1204002FFF704FF35A000F00C
:1008500097FE3C4C042020600226267101252120B1
:10086000657121464006FFF7F0FC022204210020BA
:10087000FFF7C4FD2560257121461124A4062046FA
:10088000FFF7E3FC012211460220FFF7B7FD01212B
:100890002046FFF754FD00250096F6012B460195F2
:1008A000324629A12A4800F031F9032400233246B8
:1008B00028A12A480195009400F028F90023324627
:1008C00027A129480195009400F020F900F01EFBB3
:1008D00000207CBD0D0A4C4544202D204F4E2E0D8E
:1008E0000A0000000D0A4C4544202D204F46462E9C
:1008F0000D0A00000D0A5465737420434F4D207497
:1009000061736B30322E0D0A000000000D0A546531
:10091000737420434F4D207461736B30312E0D0A78
:10092000000000000D0A5541525432207072696E69
:100930007420737472696E6720546573742E0D0A87
:1009400000000000080000207461736B310000009B
:10095000310800007461736B32000000230800004E
:100960007461736B33000000F1070000704770473B
:1009700070477047704770477047704770477047BF
:1009800070477047704770477047704770477047AF
:10099000704770477047704770477047704770479F
:1009A000704770477047704772B6FEE710B5012474
:1009B000031F24061C601B1F1960191F244B0B60AA
:1009C000143940380A6010BD704710B52148016ADB
:1009D000FF22120411430162016A120211430162F3
:1009E0001E481D494161072101611D490020086021
:1009F000FFF7ACFB002010BD704701201549000730
:100A00004860BFF34F8FBFF36F8F704772B61448C3
:100A10000168491C0160BFF34F8FBFF36F8F7047B0
:100A20000F490868401E086000D162B6704710B5D3
:100A3000FFF7A0FB044600F090F8002803D0012047
:100A40000449000748602046FFF798FB10BD0000EE
:100A5000A909000000ED00E0FF52070000E000E0FF
:100A600010000020F8B50546FFF7D0FFF74E70687C
:100A7000401C70603068F64F002803D030690028B1
:100A800023D028E035607068012824D10024142088
:100A90006043C01900F0B8FC641C052CF7D3EC4887
:100AA000643000F0B1FCEA48783000F0ADFCE84872
:100AB0008C3000F0A9FCE648A03000F0A5FCE4482A
:100AC000643030631430706305E03068E96AC06AEE
:100AD000884200D83560306A401C3062E86AF168AC
:100AE000884200D9F06014214843C019291D00F044
:100AF00099FCFFF795FF3069002806D03068E96A55
:100B0000C06A884201D2FFF778FFF8BDFFB585B013
:100B1000164690000F9F00F0BBFC05001AD04C2039
:100B200000F0B6FC040012D0256300210E9803915A
:100B30000197009002943246089B0699059800F0B0
:100B40000AFC2046FFF78EFF012009B0F0BD2846C1
:100B500000F0F2FC0020C043F7E7F8B5BB4F0026D9
:100B6000F86A002808D07869401C7861B8690028C4
:100B700000D001263046F8BDBD686D1CBD6008D1AF
:100B8000386B796B39637863F869401CF86100F061
:100B900019FC786A85420AD3386B0068002810D0A7
:100BA000386BC068C468606885420DD27862386866
:100BB0001421C06A4843A64908580128D6D90126FD
:100BC000D4E70020C043F1E7201D00F04FFCA06AED
:100BD000002803D02046183000F048FCE06AF9688D
:100BE000884200D9F8601421484399494018211DD2
:100BF00000F018FCE06A3968C96A8842CCD3012643
:100C0000CAE7F8B500242746FFF700FF8F4DE86AD2
:100C1000401EE862E86A00283AD168680126002888
:100C20001BD135E0C068C4682046183000F01EFCB7
:100C3000201D00F01BFCE06AE968884200D9E860EA
:100C40001421484382494018211D00F0EBFBE06A63
:100C50002968C96A884200D3AE617D488C3001683A
:100C60000029DFD1002C01D000F0ACFB6C69002C16
:100C700008D0FFF772FF002800D0AE61641EF8D1E3
:100C800000206861A869002802D00127FFF7B5FE9F
:100C9000FFF7C6FE3846F8BDF8B56C4E0F46B5688E
:100CA00004463068001D00F0E1FB601C08D1002FF5
:100CB00006D031686648091DA03000F0B3FBF8BDCE
:100CC00030682C1944603168AC4204D2706B091D45
:100CD00000F0B4FBF8BD306B091D00F0AFFB706A8B
:100CE0008442F7D27462F8BD5848C16A491CC16297
:100CF000704770B50E4605460023FFF7F5FF5348D1
:100D000082682C68A119944202D98C4202D804E06E
:100D10008C4201D8914200D901232960002B03D0D5
:100D2000881A0021FFF7B8FFFFF76BFF002801D1F9
:100D3000FFF763FE70BD10B5020009D0FFF7D4FFC6
:100D400000211046FFF7A8FFFFF75BFF002801D145
:100D5000FFF753FE10BD70B53C4E04463068844228
:100D600001D1002070BDFFF751FE6569FFF758FE05
:100D7000306B854202D0706B854201D1022070BD7C
:100D80003348A030854204D1A06A0028F6D1032060
:100D900070BD012070BD10B52C4BD86A002802D060
:100DA0000120986110BD00209861D868284900E0B2
:100DB000401E142242438A58002AF9D0142242438A
:100DC00051184A680C46526808344A60A24201D160
:100DD00052684A60D1681960D86010BD70B5044689
:100DE000FFF714FE194D002C00D12C68201D00F0D7
:100DF0003DFBA06A002803D02046183000F036FBE7
:100E00001348211DA03000F00DFBFFF709FE2869F3
:100E1000002805D0FFF7FAFD00F0D4FAFFF700FE36
:100E20002868844204D12869002802D0FFF7E5FD34
:100E300070BD07486968A0300068884202D1002070
:100E4000286070BDFFF7A7FF70BD000014000020F0
:100E50006400002070B50400F6D0F94D2868844283
:100E6000F2D0FFF7D3FD204600F0BAFA002815D0E3
:100E7000201D00F0FBFAE06AE968884200D9E860CA
:100E800014214843EF494018211D00F0CBFAE06AD5
:100E90002968C96A884201D3FFF7AFFDFFF7C0FD9B
:100EA000D2E7F8B504460025FFF764F90746204667
:100EB00000F096FA00281DD0E14EF06A002804D018
:100EC0002146E04818318C3012E0E06A3168C96A86
:100ED000884200D30125201D00F0C8FAE06AF168BD
:100EE000884200D9F06014214843D6494018211D9A
:100EF00000F098FA3846FFF741F92846F8BDD14C82
:100F000020680128FCD9FFF778FDF9E71CB5CC482B
:100F100000242830019023468022CBA10094CC48A5
:100F2000FFF7F4FD012809D172B60021C448C94376
:100F30004162012101618460FFF747FD1CBD10B5CE
:100F400072B60020BE490861FFF756FD10BDBC48CF
:100F500080687047BA4880687047B94840687047F1
:100F6000002801D1B64800683430704710B50246F9
:100F7000B3480C4601681046183100F05FFA0121B1
:100F80002046FFF789FE10BD10B514460122D20796
:100F9000AB4B11431A6891611968183100F042FA9D
:100FA00001212046FFF778FE10BD70B5C068C46807
:100FB00020461830064600F059FAA14DE86A00288C
:100FC00003D0A04831468C300CE0201D00F04EFAD2
:100FD000E06AE968884200D9E860142148439949E9
:100FE0004018211D00F01EFAE06A2968C96A88428B
:100FF00002D90120A86127E7002025E770B501226A
:10100000D20711430160C46800F030FA201D00F0DF
:101010002DFA8B4DE06AE968884200D9E860142116
:10102000484388494018211D00F0FCF9E06A29680E
:10103000C96A884202D90120A86105E7002003E7B8
:101040007F49CA69026089684160704770B50D4682
:101050000446FFF7DBFC7A498A682868431C0FD0F6
:101060002368C9698B4202D0616891420AD96168DC
:10107000511A814206D2401A28602046FFF7E0FF4D
:10108000002400E00124FFF7CBFC2046DCE66C499D
:101090000120886170476A4908680A688069D26AD5
:1010A000052309689A1A8A61704770B50C4606468E
:1010B000FFF7ACFC624D2868406C00280AD1286814
:1010C000012140300172002C04D02046FFF7E4FDDE
:1010D000FFF793FCFFF7A4FCFFF798FC2868446C2B
:1010E0000021002C07D0002E02D02868416402E0C5
:1010F0002A68601E5064286840300172FFF790FC37
:101100002046A1E6FFB581B01E4615460746FFF70B
:101110007DFC4B4C20684030007A02280ED02068BD
:10112000416CB94341642068012140300172002EB6
:1011300004D03046FFF7B0FDFFF75FFCFFF770FC0F
:10114000FFF764FC002D02D02068406C2860206806
:101150004030007A01280ED02068416C029A9143F9
:10116000416401252068002140300172FFF758FCDE
:10117000284605B0F0BD0025F4E7FFB581B01F4655
:101180000D4604460126FFF741FC002F01D0606C9C
:101190003860204640300146007A02220A720399E4
:1011A0000B0000F0B0FE050E04070D0B0E00616C85
:1011B000294301E0616C491C616402E0022803D00C
:1011C0006564012802D018E0002616E0201D00F01A
:1011D0004DF91B4DE06AE968884200D9E8601421A6
:1011E000484318494018211D00F01CF9E06A29689D
:1011F000C96A884201D9FFF700FCFFF711FC3046AD
:10120000B7E7FFB581B01F460D4604460126FEF73D
:10121000B1FF0090002F01D0606C38602046403054
:101220000146007A02220A7203990B0000F06BFE5D
:101230000519041218161900616C29430CE000000E
:10124000140000206400002049444C4500000000C8
:10125000FF0E0000616C491C616402E0022803D0AB
:101260006564012802D025E0002623E0644DE86A89
:10127000002803D02146183162480DE0201D00F0FF
:10128000F5F8E06AE968884200D9E860142148432B
:101290005C498C394018211D00F0C4F8E06A2968C7
:1012A000C96A884206D90A990120002901D008603C
:1012B00000E0A8610098FEF761FF304659E7F8B5F5
:1012C0000E460446FEF756FF074620464030017A98
:1012D00002220272626C521C6264012922D1484DC2
:1012E000E86A002803D02146183146480DE0201D49
:1012F00000F0BCF8E06AE968884200D9E86014218F
:10130000484340498C394018211D00F08BF8E06AB1
:101310002968C96A884205D90120002E01D03060B1
:1013200000E0A8613846FEF729FFF8BD10B5002897
:1013300001D1334800680446FFF768FB4034207A47
:10134000022804D00024FFF76BFB204610BD0020CC
:1013500020720124F7E7FFB581B00C9C9000236B4D
:10136000001F1818C6080A9DF600002023180A5C02
:1013700020331A750A5C002A02D0401C1028F5D3CD
:10138000274600214037F970052D00D30425201D84
:10139000E56200F044F82046183000F040F824617F
:1013A0000520401B6462A0610020606438723046F2
:1013B000049A0199FFF7FAFA20600B98002800D0F0
:1013C0000460D6E60E48016B0968002905D0016B60
:1013D000C968C9684968416270470021C943FAE792
:1013E000084B4269002114339A4206D1806A054AAB
:1013F000904202D0002800D1012108467047000029
:1014000014000020F0000020014608310022416055
:10141000D243C160826001610021016070470021F8
:101420000161704742684A6093688B6093685960B5
:10143000916008610168491C0160704730B50C6813
:10144000621C02D00246083202E0026904E01A4639
:1014500053681D68A542FAD953684B6099608A6049
:10146000516008610168491C016030BD43688268B1
:1014700001699A60836842685A604A68824201D171
:1014800082684A60002202610868401E0860704756
:10149000F8B504460025FFF727FC36490E460A46F4
:1014A00048680836103200280BD133480027C0089E
:1014B000C00081C6314B176053600CC00120083E4C
:1014C0004860002C07D00834600704D06007400F44
:1014D0000823181A0419294B601E5B1E984227D254
:1014E000244F3068083701E0074618464368A34296
:1014F00002D20368002BF7D1904219D03D680268F0
:101500003A6042680835121B102A0DD9061972601C
:10151000184A44600832746800E01A4613685F682D
:10152000A742FAD33360166040680A68101A086050
:10153000FFF767FB2846F8BD10B5002815D0044614
:10154000083CFFF7D1FB0B496068083100E0114609
:101550000A6853688342FAD322600C6005486168C8
:10156000026889180160FFF74CFB10BD0148006854
:10157000704770474C00002020010020F80F000049
:10158000624904E04B68DB07FCD10A60401C02782A
:10159000002AF7D170475D4A5168C907FCD1302154
:1015A00011605168C907FCD17821116001090A292D
:1015B00001D2303100E037315368DB07FCD11160D4
:1015C0000007000F0A2801D2303000E037305168A0
:1015D000C907FCD11060704730B54C4B5968C9073A
:1015E000FCD1302119605968C907FCD178211960F4
:1015F00010220146083AD1400C460906090F0A2973
:1016000001D2303100E037315D68ED07FCD119605F
:101610002107090F0A2901D2303100E037315C6817
:10162000E407FCD119601206120EE2D130BD30B5CC
:10163000364B5968C907FCD1302119605968C90770
:10164000FCD17821196020220146083AD1400C468D
:101650000906090F0A2901D2303100E037315D68EF
:10166000ED07FCD119602107090F0A2901D2303199
:1016700000E037315C68E407FCD119601206120EF5
:10168000E2D130BDF0B522A0FFF77AFF0024E0B22E
:10169000FFF781FF1EA0FFF773FF641CFF2CF6D934
:1016A0000027FF431B4E3C46E0B2FFF774FF18A033
:1016B000FFF766FF641EB442F6D80025A8B2FFF714
:1016C0008BFF13A0FFF75CFF6D1CFF2DF6D93D4685
:1016D000A8B2FFF781FF0EA0FFF752FF6D1EB542C3
:1016E000F6D800242046FFF7A2FF09A0FFF748FF25
:1016F000641CFF2CF6D93846FFF799FF04A0FFF7CA
:101700003FFF7F1EB742F6D8F0BD000000600040EA
:101710000D0A0000FFFEFFFF002203098B422CD3BD
:10172000030A8B4211D300239C464EE003460B4331
:101730003CD4002243088B4231D303098B421CD393
:10174000030A8B4201D394463FE0C3098B4201D385
:10175000CB01C01A524183098B4201D38B01C01ABD
:10176000524143098B4201D34B01C01A5241030934
:101770008B4201D30B01C01A5241C3088B4201D3E3
:10178000CB00C01A524183088B4201D38B00C01A90
:10179000524143088B4201D34B00C01A5241411AB7
:1017A00000D201465241104670475DE0CA0F00D09A
:1017B0004942031000D34042534000229C46030993
:1017C0008B422DD3030A8B4212D3FC22890112BA19
:1017D000030A8B420CD3890192118B4208D38901F1
:1017E00092118B4204D389013AD0921100E0890909
:1017F000C3098B4201D3CB01C01A524183098B42EA
:1018000001D38B01C01A524143098B4201D34B01D2
:10181000C01A524103098B4201D30B01C01A524135
:10182000C3088B4201D3CB00C01A524183088B42BC
:1018300001D38B00C01A5241D9D243088B4201D345
:101840004B00C01A5241411A00D201466346524130
:101850005B10104601D34042002B00D5494270472F
:1018600063465B1000D3404201B50020C046C0462D
:1018700002BD704770477047F0B50C46871A9C410F
:101880000D46861A9D4103D2C01BA141D219634166
:101890000D0D1F0DC94EEC1BAE435CD07F057F0DB7
:1018A0000026002F51D02D05AC46A943DD020123AF
:1018B000ED0A1B051D4320231B1B24D41746E740BC
:1018C000381871412F46E740CC199D402818314601
:1018D00061410C0D27D161449A4013D50023401C6F
:1018E000594152000ED14008400001224B005205E0
:1018F000D34207D305204007C14201D5B04900E0DB
:10190000B0493046F0BD6B00002A00D001229A1881
:101910001F23203C1B1B01D5002302E0E5402818B3
:1019200071410C0DD7D0012424050919C407CD0736
:1019300040084908E40F28436144002CD5D0002416
:10194000401C61419A40D0D1CDE76A05520DD9D1F2
:10195000C90FC907D5E79C4D4E00002801D00124CE
:1019600000E0002434195F00002A01D0012600E0C5
:101970000026BE19954FAC420CD8AE420AD8B442EC
:1019800006D001256D05EC42BCD010461946F0BDCD
:101990009942FCD000203946F0BDF0B51FB40C468A
:1019A0000F46811A9F412546861A9D4106D2012580
:1019B000ED076F40401ABC4152187B41210D1E0DAE
:1019C0008D1BAC467D4D8D437ED075056D0D7CD055
:1019D0000D05AE46AC431B031B0B794D52429D4196
:1019E000202366469B1B14D31746F7403818002661
:1019F0000090744160462F460741E41900989D40CD
:101A00002818664116D4714671189A4025D50123CD
:101A100020E093182A466A415200002B00D0521C45
:101A20001E23203E9B1B002B61DD3541EE1728183D
:101A30006641E8D5001876415B1C9A4000D3401CF3
:101A40004B05F3181524E34010D3002B52D07146F8
:101A50007118D30FC01802D3491C05B0F0BD012383
:101A6000DB079A42F9D140084000F6E7012252050F
:101A7000B21801D1002853D00123CC0ADB029943CC
:101A8000891E002A08D1020C03D0020C0004103970
:101A900002E00246002020390023550B05D1120236
:101AA0000823550B01D152010D23550C01D1120110
:101AB0001B1DD50C01D192009B1C150D01D15200AC
:101AC0005B1C2025EE1A01E02CE022E00546F540E3
:101AD00015439840CA1AE10769181305C918002A66
:101AE000BBDA032040070818C10FC9070FE0714691
:101AF0006118B2E7F10740080843711071444A00C9
:101B00000CD001235B059A42A7D2C90FC907002058
:101B1000A3E74905490D26D1002001E00028F4D1B2
:101B200000219AE7284D6600002801D0012100E03D
:101B3000002171185F00002A01D0012600E0002674
:101B4000BE19224FA94210D8AE420ED8B14208D0D9
:101B500001256D05E94206D01946A802414010460C
:101B60007BE79C4201D0214677E70020394674E7A5
:101B700010B50C465C4005D50124E4076340FFF72F
:101B80000CFF10BDFFF778FE10BD30B40C465C4072
:101B900004D50124E407634030BC6DE630BCFCE6AC
:101BA00070B50124E40761400D465D4002D4FFF7A3
:101BB00063FE70BD6340FFF7F0FE70BDFF070000DD
:101BC0000000F0FF0000F07F0000E0FF0000F87F61
:101BD0000346CA02400D10B510430A1504D0012473
:101BE000E4072043002A05DB0A4CA21A04D4D040A3
:101BF000FF2A00DD002010BD4A00002B01D001208B
:101C000000E00020101801225205D042F2D8C81777
:101C1000C04310BD1E0400000121C9050123411865
:101C200042001B06D3185B0E0AD0C1100722D20651
:101C3000891840075242D14201D552008918704795
:101C4000090208D50146002A03D0C10FC9070020A8
:101C5000704710467047420202D000200249704788
:101C6000072109050143F4E70000F87FF0B5FF25DF
:101C70002D04C609C209FF2704462E400137CB09AF
:101C80003E4348402A402B400746002A6BD0002B99
:101C900069D0AA4267D0AB4265D0002800DA32464C
:101CA0000125ED0529432C4309022002090AD21A15
:101CB0004B0C7F24E31A434C000A7C44E35C7D24F4
:101CC0002404121914145B00A218884201D3521C78
:101CD00000E0400049420C465C4324115C43DB01B8
:101CE0006415E318040A5C43C502200D0C46444306
:101CF0006419250A5D432303EC0C0D46654300037C
:101D00000019EB184C42A34201D35B18401CD405C8
:101D10002018002B07D05B00C91804D3401C0029F1
:101D200001D1400840003F2189048A4209D3002A9A
:101D300008DC1106090F04D0032149074018C00F21
:101D4000C007F0BD01224100120689187F22520609
:101D50009142F6D205214907C84201D59010F0BD45
:101D6000FF20C005F0BD002F00DA32461648AA4217
:101D700007D2AB4205D21902090E17D0F80FC007DF
:101D8000F0BDFF2563002D06AB42F9D84900A942FA
:101D9000F6D8AB4201D1A942F2D0A94201D100212B
:101DA00001E061004908D0050843F0BD1102090EA9
:101DB000FBD0FF200243D005F0BD0A460146104685
:101DC00054E70000D60300000000C07F0102C215E6
:101DD00004D00123DB071943002A0ADB9E239A1A49
:101DE00002D40846D0407047FF22410012069142BB
:101DF00001D900207047C017C04370471F22030C51
:101E000002D10F2200041CD0030E01D10002083AB7
:101E1000030F01D10001121F830F01D18000921E18
:101E2000002801DB4000521ED20551180212511841
:101E30001922904004D3491C002801D149084900C7
:101E400008467047C10FC90700D0404201229207DF
:101E50001143D3E701218907D0E7000010B5FF2225
:101E6000C30D134009D05A4007D0914205DA5C42B5
:101E7000A14202DDC905081810BDC40FE407002BFC
:101E800006D0002A06D0002902DBFF20C00504434B
:101E9000204610BD4102FCD0004810BD0000C07FAC
:101EA000754600F025F8AE46050069465346C00861
:101EB000C000854618B020B5FEF78EF960BC00273B
:101EC0004908B6460026C0C5C0C5C0C5C0C5C0C506
:101ED000C0C5C0C5C0C5403D49008D46704710B55E
:101EE0000446C046C0462046FEF729F910BD000052
:101EF000004870471811002001491820ABBEFEE7CA
:101F000026000200704730B47446641E2578641CB5
:101F1000AB4200D21D46635D5B00E31830BC18473E
:101F200070B501250400ED074C4020D4441A01D2BD
:101F3000001B0919C60D4B00F2B2FF2A29D01B0E57
:101F40002CD000020C02D31A2C43DC402843051984
:101F500010D2280A02D3401C6D0611D0761EF60559
:101F60008019FF2A00DA70BDC00DC00570BD694040
:101F700000F02EF801200543C541521C761CE8E70D
:101F800064089C40C90161408900E7D10124A04355
:101F9000E4E71B0E440200D0034870BD002AFCD1C8
:101FA000C00FC00770BD00BF0000C07F70B5012525
:101FB000ED07684004004C4002D5694000F008F885
:101FC000FFF7B4FF70B501250400ED074C4022D4A3
:101FD000441A02D26C40001B0919C60D4B00F2B224
:101FE000FF2A4BD01B0E50D000020C02D31A2C43F8
:101FF000DC40A843051B05D5AD0019D36D08761E3E
:10200000521E37D0F605280A01D2801970BD7041E2
:102010006D0603D070BD6940FFF788FF9C40090240
:102020006140490001D0401E70BD0124A04370BD35
:102030006D081DD001202B0C01D12D0410302B0E6A
:1020400001D12D0208302B0F01D12D01001DAB0F46
:1020500001D1AD00801CEB0F01D16D00401C6D0063
:10206000361A121A680AF5054019012A02DB70BDFA
:10207000002070BDC036300AC00770BD1B0E440280
:1020800001D1FF2B00D1024870BD002AF0D070BDF5
:102090000000C07F8182838485868788898B8C8DB0
:1020A0008E8F919293959697999A9C9D9FA0A2A3AB
:1020B000A5A7A8AAACAEB0B2B3B5B7B9BCBEC0C2F2
:1020C000C5C7C9CCCED1D4D7D9DCDFE2E6E9ECF084
:1020D000F3F7FAFEF4200000000000206400000086
:1020E000EC000000582100006400002014210000D2
:1020F00008010000000000000000000000000000D7
:1021000000000000AAAAAAAA000000000000000027
:1021100000000000000000000000000000000000BF
:1021200000000000000000000000000000000000AF
:10213000000000000000000000000000000000009F
:10214000F80F000000000000000000000000000088
:08215000000000000000000087
:04000005000000A94E
:00000001FF
