:020000040000FA
:100000007008002051010000DD060000DF0600003E
:1000100000000000000000000000000000000000E0
:10002000000000000000000000000000E1060000E9
:100030000000000000000000E3060000E5060000EC
:10004000E7060000E9060000EB060000ED060000F0
:10005000EF060000F1060000F3060000F5060000C0
:10006000F7060000F9060000FB060000FD06000090
:10007000FF0600000107000003070000050700005D
:1000800007070000090700000B0700000D0700002C
:100090000F070000110700006301000013070000B4
:1000A000150700001707000000F002F800F040F804
:1000B0000CA030C8083824182D18A246671EAB467D
:1000C00054465D46AC4201D100F032F87E460F3E08
:1000D0000FCCB6460126334200D0FB1AA246AB46EF
:1000E00033431847F807000018080000103A02D3FD
:1000F00078C878C1FAD8520701D330C830C101D5C9
:1001000004680C60704700000023002400250026CE
:10011000103A01D378C1FBD8520700D330C100D5C3
:100120000B6070471FB5C046C0461FBD10B510BD5F
:1001300000F0A2FB1146FFF7F5FF00F009FA00F00E
:10014000BAFB03B4FFF7F2FF03BC00F0BFFB0000F3
:100150000748804707480047FEE7FEE7FEE7FEE75F
:10016000FEE7FEE704480549054A064B70470000D4
:10017000DF040000A90000007000002070080020CB
:10018000700400207004002070B51024002101606C
:100190004160BF4A4261426281624263212252064B
:1001A000904202D1BB4BBC4A0CE043221206904263
:1001B00004D1B84BB84A4033403203E0B54BB64A9D
:1001C000803380320020602685005E515151401CF2
:1001D000A042F9D370BDF0B52122002310265206AB
:1001E000904201D1AB4A08E043221206904202D16C
:1001F000A84A403201E0A74A8032012425460F6810
:100200009D402F40AF4243D10F79012F0DD0456162
:100210004D79AD070DD59C001559AD08AD001551B0
:10022000155902273D4315510BE007692F4307611C
:10023000EEE79D005759BF08BF0057515759274354
:1002400057514C79640704D59C00155904273D4348
:1002500003E09C0015590427BD4315514C79A406B1
:1002600004D59C00155920273D4303E09C001559F7
:100270002027BD4315514C79640604D59C001559BF
:1002800040273D4303E09C0015594027BD431551CD
:100290005B1CB342B1D3F0BD7D4901600021017107
:1002A0006221417170470246126800200A4200D064
:1002B00001207047006880B27047024652680020F3
:1002C0000A4200D001207047406880B270470A0699
:1002D000920D012312189B02D21811600A0A920093
:1002E00010185A0080180160704710B50B069B0D5E
:1002F0000124CA431B18A4021B191A60090A8900A9
:10030000081861004018026010BD10B50B069B0D67
:1003100001241B18A4021B191A60090A8900081875
:1003200061004018026010BD41607047836A0B4352
:100330008362012A03D0426A0A4342627047026A1A
:100340000A4302627047524A8262012901D0426226
:10035000704702627047012A03D0426B0A4342632E
:100360007047026B0A4302637047494A012901D072
:100370004263704702637047454981637047024694
:10038000926B00200A4200D001207047F0B5012690
:10039000414D002334469C400C420ED0002810D022
:1003A000012811D03C4C9F0080343C192768BF08BD
:1003B000BF0027602768174327605B1C102BE9DB11
:1003C000F0BD9C006419F1E79C006419276CBF081C
:1003D000BF002764276C17432764EEE77CB504460B
:1003E0001E460D466846FFF757FF684600950271A6
:1003F00069462046FFF7EFFE21204006844201D1E6
:10040000002006E043200006844201D1012000E0E4
:10041000022032462946FFF7B9FF7CBD7CB5044671
:1004200016460D466846FFF737FF002069460095DF
:1004300008712046FFF7CFFE206A28432062A06A99
:100440002843A062324629462046FFF784FF212038
:100450004006124E844206D1002001222946FFF7B1
:1004600095FF802012E043200006844207D101203E
:1004700002462946FFF78AFFFF20013006E00220EE
:1004800001222946FFF782FF0120400230607CBD37
:10049000FFFF0000003000410020004100E100E0CB
:1004A00010B520480021016241698907CA0F012166
:1004B00091404269D207D20F9140CAB24169406966
:1004C0008904890E51438002174A800E504300F080
:1004D00023F91649486010BD14480068704710B5EC
:1004E0001348816B134A1161C16B0E4841600021B2
:1004F000016241698907CA0F012191404269D2070F
:10050000D20F9140CAB2416940698904890E5143B2
:100510008002054A800E504300F0FEF8034908604F
:10052000486010BD0010004100127A000000002059
:1005300080FD03000012004101B581B065490198BA
:1005400048430090002802D000BF401EF9E70CBDD0
:10055000FFF7C5FF604C012611252660AD06267108
:1005600021462846FFF737FE012211460220FFF7F9
:100570000DFF10202060267121462846FFF72BFE34
:10058000012210210220FFF701FF202020602671A8
:1005900021462846FFF71FFE012220210220FFF7F7
:1005A000F5FE01212846FFF792FE10212846FFF7AD
:1005B0008EFE20212846FFF78AFEFF24F5342046D0
:1005C000FFF7BAFF01212846FFF78FFE10212846CA
:1005D000FFF78BFE20212846FFF787FE2046FFF716
:1005E000ABFF01212846FFF772FE10212846FFF7D6
:1005F0006EFE20212846FFF76AFE2046FFF79CFF8B
:1006000001212846FFF771FE10212846FFF76DFEF5
:100610002046FFF791FF01212846FFF758FE1021E1
:100620002846FFF754FE2046FFF786FF1021284694
:10063000FFF75BFE20212846FFF757FE2046FFF715
:100640007BFF10212846FFF742FE20212846FFF7B6
:100650003EFE2046FFF770FF01212846FFF745FECA
:1006600020212846FFF741FE2046FFF765FF0121C4
:100670002846FFF72CFE20212846FFF728FE2046BB
:10068000FFF75AFF01212846FFF72FFE2046FFF70C
:1006900053FF01212846FFF71AFE2046FFF74CFFC3
:1006A00010212846FFF721FE2046FFF745FF1021C5
:1006B0002846FFF70CFE2046FFF73EFF2021284684
:1006C000FFF713FE2046FFF737FF20212846FFF7EC
:1006D000FEFD74E7C4090000080000207047704761
:1006E0007047704770477047704770477047704752
:1006F0007047704770477047704770477047704742
:100700007047704770477047704770477047704731
:100710007047704770477047002203098B422CD303
:10072000030A8B4211D300239C464EE003460B4341
:100730003CD4002243088B4231D303098B421CD3A3
:10074000030A8B4201D394463FE0C3098B4201D395
:10075000CB01C01A524183098B4201D38B01C01ACD
:10076000524143098B4201D34B01C01A5241030944
:100770008B4201D30B01C01A5241C3088B4201D3F3
:10078000CB00C01A524183088B4201D38B00C01AA0
:10079000524143088B4201D34B00C01A5241411AC7
:1007A00000D201465241104670475DE0CA0F00D0AA
:1007B0004942031000D34042534000229C460309A3
:1007C0008B422DD3030A8B4212D3FC22890112BA29
:1007D000030A8B420CD3890192118B4208D3890101
:1007E00092118B4204D389013AD0921100E0890919
:1007F000C3098B4201D3CB01C01A524183098B42FA
:1008000001D38B01C01A524143098B4201D34B01E2
:10081000C01A524103098B4201D30B01C01A524145
:10082000C3088B4201D3CB00C01A524183088B42CC
:1008300001D38B00C01A5241D9D243088B4201D355
:100840004B00C01A5241411A00D201466346524140
:100850005B10104601D34042002B00D5494270473F
:1008600063465B1000D3404201B50020C046C0463D
:1008700002BD704770477047754600F023F8AE46DA
:10088000050069465346C008C000854618B020B52B
:10089000FFF768FC60BC00274908B6460026C0C5C3
:1008A000C0C5C0C5C0C5C0C5C0C5C0C5C0C5403D28
:1008B00049008D4670470446C046C0462046FFF7B3
:1008C00040FC00000048704710000020014918203B
:1008D000ABBEFEE72600020070470000FC080000E7
:1008E0000000002010000000EC0000000C090000D7
:1008F0001000002060080000080100000000000057
:0C090000000000000000000000000000EB
:04000005000000A94E
:00000001FF
