:020000040000FA
:10000000700E00204D010000E10B0000E30B00002A
:1000100000000000000000000000000000000000E0
:10002000000000000000000000000000E50B0000E0
:100030000000000000000000E70B0000E90B0000DA
:10004000EB0B0000ED0B0000EF0B0000F10B0000CC
:10005000F30B0000F50B0000F70B0000F90B00009C
:10006000FB0B0000FD0B0000FF0B0000010C00006B
:10007000030C0000050C0000070C0000090C000038
:100080000B0C00000D0C00000F0C0000110C000008
:10009000130C0000150C00005B010000170C0000A1
:1000A000190C00001B0C000000F002F800F03EF8F4
:1000B0000CA030C8083824182D18A246671EAB467D
:1000C00054465D46AC4201D100F030F87E460F3E0A
:1000D0000FCCB6460126334200D0FB1AA246AB46EF
:1000E00033431847940E0000B40E0000103A02D3B8
:1000F00078C878C1FAD8520701D330C830C101D5C9
:1001000004680C60704700000023002400250026CE
:10011000103A01D378C1FBD8520700D330C100D5C3
:100120000B6070471FB51FBD10B510BD00F0F0FE8D
:100130001146FFF7F7FF00F0DAF800F008FF03B40C
:10014000FFF7F2FF03BC00F00FFF00000648004776
:10015000FEE7FEE7FEE7FEE7FEE7FEE703480449A9
:10016000044A054B70470000A900000070060020FB
:10017000700E0020700A0020700A002010B5204880
:100180000121016242699207D20F91404269D20770
:10019000D20F9140CAB2416940698904890E514326
:1001A0008002184A800E504300F002FE1649486053
:1001B00010BD15480068704710B51448816B144A8B
:1001C0001161C16B0E484160124941610121016218
:1001D00042699207D20F91404269D207D20F9140F3
:1001E000CAB2416940698904890E51438002054AB7
:1001F000800E504300F0DCFD03490860486010BDEC
:1002000000100041001BB7000000002080FD03002B
:10021000001200410002080001B581B04C4901986C
:1002200048430090002802D000BF401EF9E70CBDF3
:10023000F8B502224749002000F000FC46A000F07B
:10024000EDFC444F002500242E013019385C00F0ED
:10025000F0FC4EA000F0E2FC641CA4B2102CF4D31D
:100260004BA000F0DBFC6D1CADB2202DEBD30024C5
:10027000484D264601279620FFF7CEFF6E60962058
:10028000FFF7CAFF6F60641CE4B20A2CF3D3F8BD19
:10029000F8B54149002000F002FB40A000F0BEFC90
:1002A0003D4F002500242E013019385C00F0C1FCC0
:1002B00036A000F0B3FC641CA4B2102CF4D334A01C
:1002C00000F0ACFC6D1CADB2202DEBD30024314D01
:1002D000264601273220FFF79FFF6E603220FFF78E
:1002E0009BFF6F60641CE4B2142CF3D3F8BDFFF7DE
:1002F00063FFFF213648A231016181680322114367
:10030000816034A000F08AFC00F07AF800F035F942
:10031000FFF7BEFFFFF78CFFFEE710B507E003789D
:100320000C78A34201D0002010BD401C491C521E75
:10033000F5D2012010BD07E00278FF2A03D0002A81
:1003400001D000207047401C491EF5D201207047A3
:10035000C40900000C0200200D0A52656164204DA2
:10036000756C7469626C6F636B206F662035313217
:10037000206279746573206F6E20616464726573A6
:100380007320303A0D0A0D0A000000002000000022
:100390000D0A0000000400440C0000200D0A526504
:1003A00061642053696E676C65626C6F636B206F6C
:1003B0006620353132206279746573206F6E20615A
:1003C00064647265737320303A0D0A0D0A000000F0
:1003D00000600040573735303050202D2D2D5344CC
:1003E000204361726420286A7573742072656164A9
:1003F000292D2D2D2054657374210D0A0D0A00003E
:100400000120432109060861FC4A06211160FC4ACB
:100410001060FC4A5060112292061061F74A403287
:100420001160F74940310860F7494860704710B5DE
:100430000021FF239133F54A03E0491C89B2994218
:1004400009D8D468A407F8D59060002005E0401CC6
:1004500080B2984201D9002010BDD1688907F6D535
:100460009068C0B210BDF0B5074616460D46002490
:10047000FF20FFF7DCFFFF20FFF7D9FFE149002055
:100480004860384640210843FFF7D1FF280EFFF7A8
:10049000CEFF2802000EFFF7CAFF2804000EFFF768
:1004A000C6FFE8B2FFF7C3FF3046FFF7C0FF03E027
:1004B000641CA4B2FF2C04D8FF20FFF7B8FFFF286C
:1004C000F6D0F0BDF7B50024CE4E01270D46844688
:1004D0007760FF20FFF7ABFFFF20FFF7A8FFFF20AB
:1004E000FFF7A5FF00207060604640210843FFF73A
:1004F0009EFF280EFFF79BFF2802000EFFF797FFD5
:100500002804000EFFF793FFE8B2FFF790FF029870
:10051000FFF78DFF03E0641CA4B2FF2C05D8FF2079
:10052000FFF785FF0546FF28F5D07760FF20FFF72E
:100530007EFF2846FEBD10B500200F210902401C99
:1005400080B28842FBD30024FF20FFF770FF641CB9
:10055000A4B20A2CF8D30024002195220846FFF704
:10056000B1FF641CA4B2012801D0FF2CF4D3FF2CEE
:1005700001D0002010BD012010BDFCB50026A14D0A
:100580000096012001966860A04C2068072108436E
:10059000206060680221084360602661F0202061CD
:1005A000FFF7C9FF00284ED16860FF218722AB31D9
:1005B0000820FFF758FF964F0646052802D0012E67
:1005C00043D098E00220387000206860FF20FFF7D9
:1005D0002EFF0025002211463720FFF773FFFF286A
:1005E00032D0002211462920FFF76CFF6D1CADB2FE
:1005F000002801D0FF2DEDD3FF2D0FD100250022C3
:1006000011460120FFF75EFF6D1CADB2002801D03E
:10061000FF2DF4D3FF2D16D0012038700420206167
:10062000FF20FFF704FF952200213B20FFF74AFF40
:10063000002809D10121952249021020FFF742FF2D
:10064000060001D157E00120FCBDFF20FFF7EFFEBF
:1006500069460870FF20FFF7EAFE69464870FF20F0
:10066000FFF7E5FE69468870FF20FFF7E0FE694668
:10067000C87001206860FF20FFF7D9FE0126B60789
:10068000002211463720FFF71DFF0128DCD1002290
:1006900031462920FFF716FF0028F1D1002211462C
:1006A0003A20FFF7E0FE060002D00120686022E059
:1006B000FF20FFF7BCFE694608708446FF20FFF765
:1006C000B6FE69464870FF20FFF7B1FE69468870A4
:1006D000FF20FFF7ACFE6946C87001206860FF206C
:1006E000FFF7A5FE6046400601D5042000E0032088
:1006F0003870042020613046FCBD30B50546454CBD
:1007000001E0641EA4B2FF20FFF791FEA84202D0D0
:10071000002CF6D103E0002C01D0002030BDFF20DA
:1007200030BD30B53C4D0024FF20FFF780FEC006F1
:10073000C00EAC4201D1012030BD641C052804D09C
:100740000B28F9D00D28EFD130BD0024A51E04E000
:10075000641CAC4201D3FF2030BDFF20FFF767FED1
:100760000028F5D0002030BDF0B50546254E00200C
:1007700094460C467060FE20FFF7BFFF012700285B
:1007800007D077600120F0BDFF20FFF750FE2870F2
:100790006D1C2046641EA4B20028F5D1FF20FFF78F
:1007A00046FEFF20FFF743FE6046012803D1776035
:1007B000FF20FFF73CFE0020F0BD10B50446FF22ED
:1007C00000210A20FFF77EFE002805D1012210211A
:1007D0002046FFF7C9FF002010BD10B50446FF22D8
:1007E00000210920FFF76EFE002805D1012210210B
:1007F0002046FFF7B9FF002010BD00004030004147
:1008000040200041000400430004004400B00040C8
:1008100008000020FF0F0000FEFF00000FB5684633
:10082000FFF7DBFF002802D0002004B000BD6846BF
:10083000007869468009012814D08879C979800731
:10084000800D08186946097A8000890908186946E8
:10085000497A89074A0F6946897AC90989180122A4
:10086000891C0AE0087A497A0002401C0818C00472
:10087000DBE75204120C491EC9B20029F9D16946BE
:100880004979401C50430907090F012203E0520433
:10089000120C491E89B20029F9D15043C5E710B5A1
:1008A0000C46CC490978042900D0400201460022B8
:1008B0001120FFF707FE00289ED101225102204699
:1008C000FFF752FF98E7F7B506460020C24C844672
:1008D000570A606030E0019861464118BD480078D1
:1008E000042800D1490AFF221820FFF7BCFD002888
:1008F00002D001206060FEBDFE20FFF798FD0025BC
:100900003078761CFFF793FD012040026D1C854274
:10091000F6D3FF20FFF78BFDFF20FFF788FDFFF7E1
:1009200000FF002803D0012060600220FEBD604669
:10093000FF30FF30023084467F1ECCD20120606041
:10094000FF20FFF774FD0020FEBDF7B50026A24D85
:10095000540A6E6001271DE0019881199D480078B6
:10096000042800D1490AFF221120FFF77CFD00284E
:1009700006D1012251020098FFF7F6FE002801D0AF
:100980006F60FEBD0098FF36FF30FF300230FF364B
:1009900002360090641EDFD26F60FF20FFF747FD34
:1009A0000020FEBDF0B50D468A490978042900D023
:1009B0004002014600221820FFF784FD002827D1BD
:1009C000854E7060FF20FFF732FDFF20FFF72FFDFF
:1009D000FF20FFF72CFDFE20FFF729FD0024012753
:1009E0007F0228786D1CFFF722FD641CA4B2BC4274
:1009F000F7D3FF20FFF71BFDFF20FFF718FDFF20B7
:100A0000FFF715FDC106C90E0125052901D0756046
:100A1000F0BD0024714F06E0641CA4B2BC4202D9B0
:100A200075600120F0BDFF20FFF701FD0028F3D025
:100A30007560FF20FFF7FBFC0020F0BD70B50D4690
:100A4000644914460978042900D040020146002276
:100A50001220FFF737FD00281BD101267602002265
:100A600031462846FFF780FE002806D1641EFF3578
:100A7000FF3502352406240EF1D1002211460C2048
:100A8000FFF720FD544901204860FF20FFF7CFFC0D
:100A9000204670BDF7B504464E480E46007804283F
:100AA00002D06402012804D0002217200299FFF727
:100AB00009FD002221461920FFF704FD002824D15A
:100AC000454C6060FF20FFF7B2FCFF20FFF7AFFC52
:100AD00001277F02FC20FFF7AAFC00253078761C56
:100AE000FFF7A5FC6D1CADB2BD42F7D3FF20FFF7A9
:100AF0009EFCFF20FFF79BFCFF20FFF798FCC10640
:100B0000C90E052902D001216160FEBDFFF709FE73
:100B1000012810D00298401E0006000E0290D9D184
:100B2000FD20FFF784FC002801D1FE200290FFF792
:100B3000F8FD002802D001206060FEBD0120606049
:100B4000FF20FFF774FC0298FEBDFFB50D46164668
:100B50000024410222461120FFF7B4FC002808D1EE
:100B60001D4F7860FE20FFF7C8FD002808D0012047
:100B7000786004B0F0BDFF20FFF759FC641CA4B2FC
:100B8000B442F8D303983618A6420DD9FF20FFF7D8
:100B90004EFC641C2870A4B26D1CF5E7FF20FFF723
:100BA00046FC641CA4B201E001256D02AC42F5D301
:100BB000FF20FFF73CFCFF20FFF739FC01207860A5
:100BC0000020D6E700B5FF20FFF731FCFF28FAD15F
:100BD000002000BD0800002000040043FEFF0000CC
:100BE000704770477047704770477047704770474D
:100BF000704770477047704770477047704770473D
:100C0000704770477047704770477047704770472C
:100C1000704770477047704770477047614904E0FC
:100C20004B68DB07FCD10A60401C0278002AF7D130
:100C300070475C494A68D207FCD130220A604A6892
:100C4000D207FCD178220A6002090A2A01D2303286
:100C500000E037324B68DB07FCD10A600007000F69
:100C60000A2801D2303000E037304A68D207FCD180
:100C70000860704730B54B494A68D207FCD1302232
:100C80000A604A68D207FCD178220A601023044621
:100C9000083BDC402206120F0A2A01D2303200E063
:100CA00037324D68ED07FCD10A602207120F0A2A7D
:100CB00001D2303200E037324C68E407FCD10A60E0
:100CC0001B061B0EE3D130BD30B536494A68D2074A
:100CD000FCD130220A604A68D207FCD178220A602F
:100CE00020230446083BDC402206120F0A2A01D2C8
:100CF000303200E037324D68ED07FCD10A60220740
:100D0000120F0A2A01D2303200E037324C68E40771
:100D1000FCD10A601B061B0EE3D130BDF0B522A04A
:100D2000FFF77CFF0024E0B2FFF783FF1EA0FFF770
:100D300075FF641CFF2CF6D90027FF431B4D3C4672
:100D4000E0B2FFF776FF18A0FFF768FF641EAC4221
:100D5000F6D80026B0B2FFF78DFF13A0FFF75EFFB5
:100D6000761CFF2EF6D93E46B0B2FFF783FF0EA0E9
:100D7000FFF754FF761EAE42F6D800242046FFF758
:100D8000A3FF09A0FFF74AFF641CFF2CF6D93846E1
:100D9000FFF79AFF04A0FFF741FF7F1EAF42F6D88E
:100DA000F0BD0000006000400D0A0000FFFEFFFFE4
:100DB000002203098B422CD3030A8B4211D3002358
:100DC0009C464EE003460B433CD4002243088B4232
:100DD00031D303098B421CD3030A8B4201D39446BF
:100DE0003FE0C3098B4201D3CB01C01A52418309B2
:100DF0008B4201D38B01C01A524143098B4201D36C
:100E00004B01C01A524103098B4201D30B01C01A96
:100E10005241C3088B4201D3CB00C01A5241830810
:100E20008B4201D38B00C01A524143088B4201D33D
:100E30004B00C01A5241411A00D20146524110469D
:100E400070475DE0CA0F00D04942031000D3404212
:100E5000534000229C4603098B422DD3030A8B4248
:100E600012D3FC22890112BA030A8B420CD38901E6
:100E700092118B4208D3890192118B4204D38901CC
:100E80003AD0921100E08909C3098B4201D3CB010A
:100E9000C01A524183098B4201D38B01C01A5241BF
:100EA00043098B4201D34B01C01A524103098B42C3
:100EB00001D30B01C01A5241C3088B4201D3CB00AE
:100EC000C01A524183088B4201D38B00C01A524191
:100ED000D9D243088B4201D34B00C01A5241411A68
:100EE00000D20146634652415B10104601D3404296
:100EF000002B00D54942704763465B1000D3404247
:100F000001B50020C046C04602BD7047704770471B
:100F1000754600F025F8AE46050069465346C00800
:100F2000C000854618B020B5FFF718F960BC00274F
:100F30004908B6460026C0C5C0C5C0C5C0C5C0C5A5
:100F4000C0C5C0C5C0C5403D49008D46704710B5FD
:100F50000446C046C0462046FFF7F1F810BD000029
:100F6000004870470C06002001491820ABBEFEE780
:100F70002600020070470000980F000000000020CB
:100F80000C000000EC000000A40F00000C0000208A
:100F9000640E0000080100000000000000000000D6
:040FA000000000004D
:04000005000000A94E
:00000001FF
